:020000040800F2
:10000000C8AD00204901000857360008213100081A
:100010005536000821100008A53B0008000000002C
:10002000000000000000000000000000C9380008C7
:10003000B912000800000000D5370008CB380008CE
:100040006301000863010008630100086301000800
:1000500063010008630100086301000863010008F0
:1000600063010008630100086301000863010008E0
:100070006301000895120008A1120008AD120008E3
:1000800063010008630100086301000863010008C0
:1000900063010008630100086301000863010008B0
:1000A00063010008630100086301000863010008A0
:1000B0006301000863010008630100086301000890
:1000C0006301000863010008630100086301000880
:1000D00063010008313B0008630100086301000868
:1000E0006301000863010008630100086301000860
:1000F000313900086301000863010008630100084A
:10010000630100086301000863010008630100083F
:100110006301000863010008193900082539000847
:10012000630100086301000863010008630100081F
:10013000DFF810D000F090FC00F04CF800480047C9
:10014000ED9B0008C8AD00200648804706480047E0
:10015000FEE7FEE7FEE7FEE7FEE7FEE7FEE7FEE777
:10016000FEE7FEE7D138000831010008202A04DB51
:10017000203A21FA02F00021704721FA02F3D04020
:10018000C2F1200291400843194670470649074AC8
:100190000868504343F23902104408604008704731
:1001A0000149086070470000F80100206D4EC6410B
:1001B000D2B201E000F8012B491EFBD270470022A9
:1001C000F6E710B513460A4604461946FFF7F0FF56
:1001D000204610BD70B5054C054D03E02068204455
:1001E0008047241DAC42F9D170BD00002C75040875
:1001F00030750408F0B480EA0102D40F4200B2EB7B
:10020000410F02D20246084611464A0042D0C30DB1
:10021000DDB2C1F3C752AD1A202D35DAC1F3160194
:1002200041F4000204B15242C5F1200602FA06F17F
:100230002A411044B3EBD05F23D0C4B1012DA0EB11
:10024000C35009DCF0BC4FF0004202EAC352DBB2FB
:1002500000F5000000F027BB400000F1807000EBCB
:10026000C350A0F1807040EAD170490009E049080C
:1002700041EAC071A0EBC35000F50000400800EB5C
:10028000C350F0BC00F006BB6142012202EB410109
:10029000001BF6E7F0BC704781F00041AAE780F050
:1002A0000040A7E780EA010210B502F000434000D9
:1002B00022D04A001FD0010E01EB1261C0F356009C
:1002C000C2F3560240F4000042F40002A0FB0220F8
:1002D00000047F39140400D0401C50EA124001D4BD
:1002E0004000491EC2B20C0604EBD010401C40086E
:1002F000802A02D003E0002010BD20F00100002978
:1003000000DA0020184310BD30B480EA010202F088
:10031000004530F0004221F0004013D090B1C30DF1
:10032000D40DC2F31601C0F31600E41A41F4000123
:1003300040F400027D34914201D3641C00E0490086
:10034000002C02DA30BC002070474FF4000000237C
:10035000914201D3891A034340084FEA4101F7D182
:1003600051B1914202D14FF0004105E002D24FF06D
:10037000010101E06FF0010103EBC450284430BCDF
:1003800000F088BA420005D0C0F3C75252429142F1
:1003900001DC0020704700EBC15070472DE9FE4F93
:1003A000804681EA0300C00F0C46009021F0004116
:1003B00023F00045B8EB0200A94105D24046214692
:1003C00090461C460B46024623F00040104347D09F
:1003D000270DC7F30A00C3F30A510290401A019097
:1003E00040286BDAC3F3130040F4801B0098924658
:1003F00020B10023D2EB030A63EB0B0B01985946A3
:10040000C0F14002504600F024FA06460D46504620
:100410005946019A00F02CFA10EB080061410024C3
:1004200087EA115284EAE7731A4340D0009A62B314
:10043000019A012A4FEA075215DC001B61EB020109
:100440004FF0004202EA0752CDE90042001C41F59C
:10045000801132462B4600F081FA03B0BDE8F08FE0
:1004600040462146F9E7001B61EB0201001C41F503
:10047000801300185B412018A2F5001747EB030119
:1004800040EAD570B6196D4111E06D084FEA3606A5
:1004900045EAC0754FEA0752001B61EB0201001CE0
:1004A00041F5801149084FEA3000001951413246A8
:1004B0002B4603B0BDE8F04F00F041BA009801228E
:1004C00040000023D0EB020263EBE073009821466A
:1004D0004FEAE074B8EB000061EB0401E9E783F058
:1004E00000435BE781F0004158E72DE9FE4F81EAC8
:1004F000030404F0004421F0004100944FF0000B8D
:1005000023F0004350EA01045ED052EA03045BD0BA
:10051000C3F30A54C1F30A552C44A4F2F3340194F2
:10052000A0FB0254C1F3130141F48011C3F3130380
:1005300043F4801301FB024400FB034E840A970A34
:1005400044EA815447EA8357A4FB076802958D0A61
:1005500005FB07854FEA932C04FB0C542705029DED
:100560004FEA065847EA1637B5EB08056EEB070C5D
:10057000870E920E47EA811742EA8312A7FB020117
:10058000B6EB0B0164EB00042B0D43EA0C335E1851
:1005900044EB1C50DA465146E7FB0201C5F3130455
:1005A0004FEA0B3343EA14534FEA0432019C43EA07
:1005B0000603A4F10C040294009CCDE900B400F001
:1005C000CDF903B0BDE8F08F00200146F9E72DE931
:1005D000F04D81EA030404F0004B21F0004514467D
:1005E0004FF0000A23F0004150EA050220D054EAFF
:1005F00001021DD0C5F30A570246C5F31303C1F328
:100600001300C1F30A5640F4801543F48013A7EB9E
:100610000608101BD64608F2FD3873EB050002D31E
:1006200008F1010801E092185B41B8F1000F03DA0C
:1006300000200146BDE8F08D00204FF480110646F1
:1006400084460EE0171B73EB050705D3121B63EB03
:10065000050306434CEA010C49084FEA30009218A2
:100660005B4150EA0107EDD152EA030012D082EA61
:10067000040083EA0501084305D0101BAB4106D2F4
:100680000122002306E000224FF0004302E06FF059
:10069000010253101AEB06004CEB085110EB0A0054
:1006A00041EB0B01BDE8F04D00F049B9C10F80EA04
:1006B000E0700844CA079623002100F0F4B896239E
:1006C0000022114600F0EFB80EB540F2334102911E
:1006D0000021CDE900110A460B4600F03FF903B0B6
:1006E00000BD00F0004220F00040C10DC0F3160034
:1006F00040F400007F2901DA00207047962903DCCE
:10070000C1F19601C84001E096398840002AF4D032
:100710004042704720F00040C10DC0F3160040F485
:1007200000007F2901DA00207047962903DCC1F11F
:100730009601C840704796398840704700F00042E3
:1007400030F000400AD0C10D01F56071C0F3160011
:1007500042EA0151C2084007114370470020014698
:10076000704701F0004330B421F0004150EA01022B
:1007700006D00A0DA2F56072C1F31301002A02DC53
:1007800030BC00207047440F44EAC104C100E018A7
:1007900030BC00EBC25000F07DB80000002801DB47
:1007A000C0F10040002901DBC1F1004181427047E6
:1007B000002801DBC0F10040002901DBC1F100414C
:1007C0008842704730B50B460146002020220124A4
:1007D00009E021FA02F59D4205D303FA02F5491B0F
:1007E00004FA02F52844151EA2F10102F1DC30BD25
:1007F0002DE9F05F0546002092469B468846064656
:10080000814640241BE02846414647462246FFF7E2
:10081000ADFC53465A46C01A914110D311461846B2
:10082000224600F016F82D1A67EB01084F462246C3
:100830000120002100F00DF817EB00094E41201EA9
:10084000A4F10104DFDC484631462A464346BDE8B0
:10085000F09F202A04DB203A00FA02F100207047C2
:100860009140C2F1200320FA03F3194390407047EE
:10087000202A06DBCB17203A41FA02F043EAE07364
:1008800006E041FA02F3D040C2F120029140084351
:10089000194670470029A8BF7047401C490008BF8F
:1008A00020F00100704710B4B0FA80FC00FA0CF0A0
:1008B00050EA010404BF10BC704749B1CCF12004D8
:1008C00021FA04F411FA0CF118BF01212143084365
:1008D000A3EB0C01CB1D4FEA00614FEA102042BF91
:1008E000002010BC704700EBC35010440029A4BF87
:1008F00010BC7047401C490008BF20F0010010BC2C
:10090000704710B541000CD0C0F3C751962908DCE0
:100910007E2909DC06DB410204D000F0004040F0F3
:100920007E5010BD002010BDC1F19604C4F120011D
:1009300000FA01F1E040FFF7ADFFA04010BD10B597
:10094000141E73F1000408DA401C41F100019218F2
:100950005B411A4301D120F0010010BD2DE9F04D9B
:1009600092469B4611B1B1FA81F202E0B0FA80F2F0
:1009700020329046FFF76DFF04460F4640EA0A001A
:1009800041EA0B0153465A46084313D0114653EA35
:10099000010019D0C8F140025046FFF7E7FB0546B9
:1009A0000E46504659464246FFF753FF084305D0CE
:1009B000012004E020463946BDE8F08D00200543C3
:1009C00046EAE0762C4337430A986305E40AA0EB35
:1009D00008000022FD0A44EA47540A3002D50020EC
:1009E0000146E9E7010510196941DDE908450019EB
:1009F0006941BDE8F04DA2E7C1F30A52C1F313010A
:100A000040F2FF3341F480119A4202DA002001469D
:100A1000704740F233439A42A2F2334202DC524220
:100A2000FFF7A4BBFFF715BF30B5041E71F100043A
:100A300004DB4FF00044404264EB0101141E73F1EB
:100A4000000405DB1C464FF00043524263EB0403F5
:100A5000994208BF904230BD064C074D06E0E06861
:100A600040F0010394E8070098471034AC42F6D3F5
:100A7000FFF762FB0C7504082C75040870B58C1820
:100A800010F8015B15F0070301D110F8013B2A11A2
:100A900006D110F8012B03E010F8016B01F8016B8F
:100AA0005B1EF9D12B0705D40023521E0DD401F88B
:100AB000013BFAE710F8013BCB1A921C03E013F854
:100AC000015B01F8015B521EF9D5A142D8D3002089
:100AD00070BD000070B5044600688168C943C9074D
:100AE0001CD1816821F00101816001F0FFF8054609
:100AF0000FE000BF01F0FAF8401B022809D9A06AF4
:100B000040F01000A062E06A40F00100E0620120C5
:100B100070BD20688068C043C007EBD0002070BD66
:100B200070B504460078FF2834D16078552831D15B
:100B3000608848F2060340BAC11A0125564E574A4A
:100B400098424BD027DC48F20303A0EB0301984204
:100B500032D013DCA0F10A00B0F5804070D009302B
:100B6000B0F580401FD0012814D1B4F80500538897
:100B700041BA8B420ED040BA508073E0012924D094
:100B8000022907D1B4F80500138941BA8B4201D07C
:100B900040BA108170BD0629FCD2DFE801F00328BD
:100BA0003A314352F6E7B4F8050040BA1080012804
:100BB000F0D93B49088070BDB4F80500938841BA6C
:100BC0008B42F8D040BA908070BDB4F80500D3884D
:100BD00041BA8B42F8D040BAD08070BDB4F805005D
:100BE000538941BA8B42F8D040BA50813AE0B4F808
:100BF0000500938941BA8B42EFD040BA908131E031
:100C0000B4F80500D38941BA8B42E6D040BAD0810E
:100C100028E0B4F80500138A41BA8B42DDD040BA0F
:100C200010821FE0B4F80500538A41BA8B42D4D039
:100C300041BA5182022901D21AA00DE01EA00FE094
:100C400012E0B4F80500938A41BA8B42C5D041BA8C
:100C50009182062903D21CA008F076F902E01FA0B9
:100C600008F072F9757070BD0B4814213830FFF729
:100C7000A6FA09490020383103E0221852790A54B3
:100C8000401C22798242F8DCBDE8704002491422FF
:100C90003831174803F026BF6C00002054A600200E
:100CA0004800002043757272656E7420746F702066
:100CB00025640D0A0000000043757272656E742091
:100CC000746F7020310D0A0043757272656E742066
:100CD0006C6F676F2025640D0A0000004375727207
:100CE000656E74206C6F676F20350D0A0000000080
:100CF00000E0070810B504460078FF281BD1607893
:100D0000552818D12079022815D1608841BA8C481D
:100D100032297DD02EDC13297BD016DC042979D032
:100D20000ADC012977D0022976D0032903D1B4F84F
:100D3000051049BA818010BD11296ED01229FAD14F
:100D4000B4F8051049BA818110BD222966D008DCAB
:100D5000142972D02129F7D1B4F8051049BA41827B
:100D600010BD23296AD03129FAD1B4F8051049BA47
:100D7000018310BD40F20523A1F20522994272D0F1
:100D80001CDC40F20223A1F2022299426CD00CDC5E
:100D900041296AD0422969D0A1F500710139E8D111
:100DA000B4F8051049BA018410BD012A73D0022A93
:100DB000FAD1B4F8051049BAC18410BD032A43D052
:100DC00008DC012A68D0022AF7D1B4F8051049BA24
:100DD000818510BD02F2C622B2F580427ED002F6B5
:100DE0009512B2F5005FF4D1B4F8050040BAA0F551
:100DF000B4415A39EDD100F025F95249012008706B
:100E00004F48163801885048012965D0018806E00E
:100E10003CE023E013E007E00AE01AE02CE00129BF
:100E2000D7D10021018010BDB4F8051049BAF9E707
:100E3000B4F8051049BA418010BD18E021E0B4F8BB
:100E4000051049BAC180F7E7B4F8051049BA018125
:100E5000F2E7B4F8051049BA4181EDE7B4F805109E
:100E600049BAC181E8E72DE021E016E01AE0B4F8C4
:100E7000051049BA0182DFE7B4F8051049BA81824A
:100E8000DAE7B4F8051049BAC182D5E7B4F805101D
:100E900049BA4183D0E70FE019E0B4F8051049BA28
:100EA0008183C9E7B4F8051049BAC183C4E7B4F82F
:100EB000051049BA4184BFE7B4F8051049BA8184E6
:100EC000BAE70BE0B4F8051049BA0185B4E7B4F805
:100ED000051049BA4185AFE70421A3E71949142257
:100EE00038311A4803F00EFB6079A179154B00F0F8
:100EF0005A0001F0A5014C33084398706079A1793C
:100F000080F0570001F057010843D870A3F1140096
:100F100008F09AFD18710B490020383103E00A5C93
:100F20001C18401C62711A798242F8DC0549D2B261
:100F30004C31BDE810400648521D02F0D1B8000007
:100F40006AA600206C0000204800002000E007088E
:100F500008A5002010B50178FF2935D14178552921
:100F600032D1017902292FD34188184A49BAA1F513
:100F7000407101390BD0012918D0022921D11BE081
:100F8000431854185B79491C84F8A63089B2037958
:100F90008B42F5D80D480321163802880C48012AE7
:100FA00002D00288012A0CD101800AE0B0F80500C5
:100FB00040BAA2F8660104E0B0F8050040BAA2F811
:100FC000680104490120087010BD00006AA60020D5
:100FD000480000206C00002010B5104904074FF0B5
:100FE00001024FF0000301D54B7102E0840600D5E9
:100FF0004A71C40701D08A7000E08B70840701D564
:10100000CA7000E0CB70440701D50A7100E00B7193
:10101000C00601D58A7110BD8B7110BD7E00002005
:10102000FEE700000020064A01461318401C83F822
:10103000A610C028F9DBA2F86611A2F86811704763
:101040006AA60020F8B56D4C0A25208880B1B0FB57
:10105000F5F26BA104F5B57007F086FF2088B0FBB0
:10106000F5F105FB110268A104F5BA7007F07CFFE9
:1010700062881AB165A1674807F076FFA088FFF77C
:1010800023FB654E00223346FFF7A1FA0246614872
:101090000B4662A10A3007F067FFE28822B15D4883
:1010A00061A1143007F060FF608950B1B0FBF5F129
:1010B000B0FBF5F205FB110356485DA11E3007F0A9
:1010C00053FFA28922B1534850A1283007F04CFFAA
:1010D000E089FFF7F9FA00223346FFF778FA024673
:1010E0004C480B464DA1323007F03EFF228A22B118
:1010F00048484DA13C3007F037FF608A60B1FFF7E8
:10110000E3FA00223346FFF762FA024641480B46F3
:101110004AA1463007F028FFA28A22B13D4842A1E9
:10112000503007F021FF208BFFF7CEFA0022334624
:10113000FFF74DFA024637480B4643A15A3007F0F5
:1011400013FF628B22B1334842A1643007F00CFFD9
:10115000E28822B12F4840A18C3007F005FF628859
:1011600022B12C483CA1783007F0FEFE228A22B141
:10117000284839A1823007F0F7FE608950B1B0FBF2
:10118000F5F1B0FBF5F205FB1103224834A16E30F6
:1011900007F0EAFE228822B11E4834A1963007F0FB
:1011A000E3FE628922B11B4830A1A03007F0DCFECB
:1011B0001848638D228D2FA1AA3007F0D5FE15485F
:1011C000228D0FA1B43007F0CFFE1248628D0CA122
:1011D000BE3007F0C9FE0F48A28D09A1C83007F044
:1011E000C3FEA08C0090E08C2549638C51F8202030
:1011F000084824A1D23007F0B7FEF8BD6AA6002047
:1012000025303264000000002531640025644D68FB
:101210007A200000E8A70020000024402530322E6C
:101220003166252520200000256452706D200000C5
:10123000253032642E253164242000002530332EE1
:1012400031662420000000002530322E316625252D
:1012500020000000256400002530346400000000F8
:10126000253032642E2531640000000025303364BF
:1012700023000000253032643A253032640000003B
:101280008800002025732E20253032642D25303231
:1012900064000000014800F025BA000010A60020FC
:1012A000014800F01FBA0000CCA50020014800F062
:1012B00019BA000088A500207047704770B5054630
:1012C00000F014FD0646114C09E0681C07D025B15A
:1012D00000F00CFD801BA84201D9032070BDE0681E
:1012E000C007F2D1E068800601D52020E060E06808
:1012F000C00605D4E069C00702D1E068400703D505
:1013000006F060F9012070BD002070BD0020024091
:10131000F8B50024009490F824202546012A12D024
:10132000012280F824204A681F23072A0DD206686C
:10133000776B521E02EB820293409F430B689340EF
:101340001F43776319E00220F8BD06680D2A0AD210
:10135000376BD21F02EB820293409F430B6893408E
:101360001F43376309E0F76A0D3A02EB82029340AC
:101370009F430B6893401F43F7620A680723066880
:101380000A2A0AD3F7680A3A02EB420293409F43C3
:101390008B6893401F43F76008E0376902EB420215
:1013A00093409F438B6893401F4337610A68102A1C
:1013B00001D0112A20D1124B02689A4217D19368AA
:1013C0001B0219D4936843F4000393600968102941
:1013D00012D10C490C4A0968B1FBF2F101EB810111
:1013E000490000E0491E00910029FBD104E0816A18
:1013F00041F020018162012480F824502046F8BD8C
:1014000000240140F401002040420F002DE9F0418A
:1014100004004FF000057FD0A06A002628B9E662DC
:1014200084F82460204600F081F82046FFF752FB44
:10143000A16AC90600D420B1A06A40F01000A062E1
:101440006AE0A16A21F4885141F00201A1623349A6
:1014500023688B42E16904D1B1F5402F01D14FF4EB
:101460000021E7684FF4807C41EA470261680A4343
:10147000A168614508D0012906D00021D4F814E004
:10148000BEF1010F02D00AE06146F7E7C7B1A76AD3
:1014900047F02007A762E76A47F00107E7625F6845
:1014A00027F469470F435F60236899681C4F3940F0
:1014B00011439960A16861450BD0012909D00CE066
:1014C000DFF860E0A7690EEB47370F4347F4006190
:1014D000E5E7218A0D05A5F580152168CB6A23F47F
:1014E00070032B43CB62216889680F4B19409142EE
:1014F00008D1E662A16A21F0020141F00101A16276
:10150000BDE8F081A06A20F0020040F01000A06267
:10151000E06A40F00100E0620120F1E7003C014098
:10152000FDF7E1FF00E0FFFFFE0E1FFF00B585B0F5
:101530000021009101910291039100680E498842B7
:1015400018D10E48816941F400718161816901F40B
:1015500000710491816941F00401816180696946EB
:1015600000F0040004900120009003200190044842
:1015700000F0C2FA05B000BD002401400010024096
:101580000008014001680A6822F00E020A60016842
:101590000A6822F001020A6090F84020C36B012122
:1015A00001FA02F25A6080F82110002180F8201020
:1015B000084670472DE9F05F90F8211000240229B9
:1015C00003D004218163012485E001680A6822F0C8
:1015D0000E020A6001680A6822F001020A603F4EAA
:1015E0003E4FB215DFF8F4C0DFF8F090DFF8ECA062
:1015F000DFF8E8B0DFF8E4E00168783F1301150296
:10160000ACF1640CA9F15009AAF13C0AABF1280B2A
:10161000AEF1140E4FF48018B14227D9B9420ED062
:10162000614512D049451DD0514518D0594518D0B3
:10163000714501D1424615E0294EB14201D1012246
:1016400010E0274E1436B14201D110220AE0244E98
:101650002836B14206D0224A3C32914201D11A4684
:1016600000E02A461E49091F0A602BE0B94213D048
:10167000614517D0494522D051451DD059451DD04F
:10168000714501D142461AE0B14202D14FF0807259
:1016900015E0134EB14201D1012210E0104E143674
:1016A000B14201D110220AE00D4E2836B14206D0D7
:1016B0000B4A3C32914201D11A4600E02A460749C2
:1016C00080394A60012180F82110002180F8201023
:1016D000416B01B188472046BDE8F09F8000024081
:1016E000080402402DE9F05FC16B0A6801680B68CD
:1016F000046C4FF0040808FA04F8844D844E854FBA
:10170000DFF814C2DFF81492DFF814A2DFF814B285
:10171000DFF814E218EA020F65D05FEA437862D579
:101720000A68920603D40A6822F004020A60DFF80D
:10173000F0814FF48062016808F11408130114026B
:10174000414524D9A9420DD0B1420FD0B9421AD097
:10175000614515D0494515D0514501D1120312E01C
:10176000594501D104220EE0714501D140220AE021
:101770006D4D1435A94206D06B4A2832914201D1F1
:101780001A4600E022466749091F0A6029E0A9427B
:1017900013D0B14215D0B94220D061451BD0494584
:1017A0001BD0514502D14FF4800217E0414502D1D0
:1017B0004FF0806212E0594501D104220EE07145DC
:1017C00001D140220AE0584D1435A94206D0564AAC
:1017D0002832914201D11A4600E022464B4908398D
:1017E0004A60C16A71E04FF0020808FA04F818EA8A
:1017F000020F70D05FEA83786DD50A68920606D42E
:101800000A6822F00A020A60012180F82110DFF83C
:1018100010814FF40072016808F1140813011402DA
:10182000414524D9A9420DD0B1420FD0B9421AD0B6
:10183000614515D0494515D0514501D1120312E03B
:10184000594501D102220EE0714501D120220AE062
:10185000354D1435A94206D0334A2832914201D180
:101860001A4600E022462F49091F0A6029E0A942D2
:1018700013D0B14215D0B94220D061451BD04945A3
:101880001BD0514502D14FF4001217E0414502D15F
:101890004FF0007212E0594501D102220EE071456D
:1018A00001D120220AE0204D1435A94206D01E4A5B
:1018B0002832914201D11A4600E0224613490839E4
:1018C0004A60002180F82010816A00291CD0BDE800
:1018D000F05F0847FFE70825A540154214D01A0716
:1018E00012D50A6822F00E020A6090F84020C36BFD
:1018F000012101FA02F25A60816380F8211000216F
:1019000080F82010016BE0E7BDE8F09F080002407E
:101910001C000240300002404400024058000240D7
:101920006C000240080402401C04024030B560B163
:101930001A4B026814219A4209D2194B1344B3FB83
:10194000F1F18900016417490AE0012030BD134B11
:101950005B421344B3FBF1F1890001640F4908397C
:10196000C163022180F82110136843F6F0718B43A4
:10197000F0E901142143D0E902452C4321430469D5
:1019800021434469214384692143194311600021A3
:101990004163012242770177084630BD08040240C6
:1019A000F8FFFDBF0000024070B5044690F820002B
:1019B000002501280CD0012084F8200094F8216033
:1019C0000020012E06D084F820000225284670BD94
:1019D000022070BD022684F82160A063206806689A
:1019E00026F001060660204605F049FBE06A002863
:1019F0002068016802D041F00E0106E021F00401E8
:101A000001602068016841F00A01016020680168F6
:101A100041F001010160D9E770B5044600F066F9B4
:101A20000546601C02D004480078044400F05EF9CA
:101A3000401BA042FAD370BDE801002003480169B1
:101A400041F0800101610020704700000020024049
:101A50002DE9F05F07461C4888460024017E1546A4
:101A60001E46012909D00121814601764CF2503AE7
:101A70005046FFF723FC18B122E00220BDE8F09F9A
:101A8000012F02D0022F00D00427D346DFF83CA05C
:101A9000220128463146FEF769FB81B208EB44007B
:101AA00005F0BEFD5846FFF709FCDAF8102022F0D9
:101AB0000102CAF8102018B9641CE4B2BC42E7D392
:101AC000002289F81820D9E7A8A9002000200240A8
:101AD000064900200A69120607D5054A4A60054AE8
:101AE0004A600969090600D50120704700200240BC
:101AF00023016745AB89EFCD2DE9F84FDFF8B8A199
:101B000000220AF1040B144601274FF00F090BF1D4
:101B1000040E00BF0B6807FA04F52B40AB4274D1EA
:101B2000DFF898C14E68A6EB0C0866452BD00DDC9B
:101B3000032E34D005DC36B3012E19D0022E2FD15E
:101B40001BE0112E16D0122E2AD119E0B8F5881FED
:101B500019D006DCB8F5803F15D0B8F5801F1FD12D
:101B600011E0B8F5001F0ED0B8F5041F18D10AE037
:101B7000CA6815E0CA68121D12E0CA6808320FE090
:101B8000CA680C320CE08A682AB1012A4FF00802B8
:101B900003D0456104E0042202E0056100E0002278
:101BA000FF2B01D8064601E000F104064FEA840548
:101BB00001D9A5F12005D6F800C009FA05F82CEAEC
:101BC000080C02FA05F54CEA050CC6F800C04D6891
:101BD000ED006AD53A4DAE6946F00106AE61AD69D9
:101BE00024F0030605F001050095364D06EB050CC3
:101BF000DCF80850A6074FEA167809FA08F6B5434C
:101C0000314EB04202D100261AE04EE02F4EB042D3
:101C100001D1012614E02E4EB04201D102260FE080
:101C20002C4EB04201D103260AE02B4EB04201D126
:101C3000042605E0294EB04201D1052600E0062623
:101C400006FA08F62E43CCF808604D68DAF8006012
:101C5000ED03554601D51E4300E09E432E604D68BE
:101C6000AD0305D5DBF800601E43CBF8006004E04F
:101C7000DBF800509D43CBF800504D68DEF8006063
:101C8000ED02754601D51E4300E09E432E604D686F
:101C9000AD0205D5084D0C352E681E432E6004E0BC
:101CA000054E0C3635689D433560641C102CFFF4DE
:101CB00031AFBDE8F88F00000004014000001110B2
:101CC000001002400000014000080140000C0140EB
:101CD000001001400014014000180140001C0140A8
:101CE0000AB1016170470904FBE700000148806800
:101CF00070470000E8010020024881680278114422
:101D000081607047E8010020074810B5016841F084
:101D100010010160032000F073F8002000F006F8C5
:101D200000F024F8002010BD0020024070B50D4DD9
:101D300004464FF47A712878B1FBF0F00A4909683B
:101D4000B1FBF0F000F072FB48B9102C07D2002272
:101D50002146501E00F034F800206C6070BD012058
:101D600070BD0000E8010020F40100200C4808B517
:101D7000816941F001018161816901F001010091F6
:101D8000C16941F08051C161C06900F0805000908C
:101D90000448416821F0E06141F00071416008BDF4
:101DA000001002400000014000F01F02012191409C
:101DB0004009800000F1E020C0F8001170470000E9
:101DC000F0B40E4B1B680C46C3F30223C3F10705A6
:101DD000042D00D90425191D072901D2002300E094
:101DE000DB1E012606FA05F1491E214099409E405E
:101DF000761E16403143F0BC05F020BC0CED00E02F
:101E0000064900F0070208684FF6FF03184040EA51
:101E10000220034A10430860704700000CED00E008
:101E20000000FA052DE9F84305460078354CC00757
:101E300054D0E0690026C00008D4E06940F080502A
:101E4000E061E069012600F0805000902E480168B2
:101E5000C90512D40168804641F480710160FFF722
:101E600045FF074605E000BFFFF740FFC01B6428A1
:101E700023D8D8F80000C005F6D5206A10F44070C9
:101E800021D0A98801F4407181421CD0206A1F49E9
:101E9000012220F440700A6000220A602062C0071C
:101EA00011D0FFF723FF074641F2883808E000BF52
:101EB000FFF71CFFC11B414502D90320BDE8F88391
:101EC000206A8007F4D5206A696820F440700843CE
:101ED00020621EB1E06920F08050E0612878800720
:101EE00005D56068A96820F4404008436060287800
:101EF000C00605D56068696920F480000843606009
:101F00000020DBE700100240007000404004424225
:101F10002DE9F047DFF8548105460E46D8F8000059
:101F200000F00700B0420CD2D8F8001021F00701F1
:101F30003143C8F80010D8F8000000F00700B042A4
:101F40006FD128684A4C810712D5400703D56068D5
:101F500040F4E06060602878000703D5606840F4D2
:101F6000605060606068A96820F0F000084360601D
:101F70002878C00744D06868012816D02168022854
:101F800016D0890700294CDA616821F0030101436A
:101F90006160FFF7ABFE6968074641F288300129AE
:101FA0000ED00229814618D026E021688903E9E78E
:101FB0008901E7E7FFF79AFEC11B494501D918E0FF
:101FC00081466068C0F381000128F3D118E000BFAA
:101FD000FFF78CFEC11B49450BD86068C0F3810038
:101FE0000228F5D10CE000BFFFF780FEC11B494578
:101FF00002D90320BDE8F087606810F00C0FF3D120
:10200000D8F80010404601F00701B1420BD9016831
:1020100021F0070131430160006800F00700B04281
:1020200001D00120E6E72878400705D56068E96817
:1020300020F4E060084360602878000706D56068F7
:10204000296920F4605040EAC100606000F036F871
:102050006168084AC1F30311515CC8400649086031
:102060000020FFF763FE0020C4E7000000200240CC
:1020700000100240A7740408F40100200448054938
:1020800000684968044AC1F30221515CC8407047A6
:10209000F401002000100240B77404080448054908
:1020A00000684968044AC1F3C221515CC8407047C6
:1020B000F401002000100240B774040812A185B09A
:1020C0000FC98DE80F0014A0144A006804905168ED
:1020D000134811F00C0312D0042B10D0082B0ED192
:1020E000C1F38343C9031DF803000AD5516804AA4C
:1020F000C1F34041515C0A4A5043B0FBF1F005B0D6
:10210000704708494843FAE702030405060708092F
:102110000A0B0C0D0E0F10100102000000100240FF
:1021200000127A0000093D002DE9F84F04460078BE
:10213000B94DC00748D06868C0F38100012807D0B6
:102140006868C0F38100022809D16868C00306D519
:102150002868800338D5606800286FD034E0606854
:10216000B0F5803F0BD010B1B0F5A02F11D028688A
:1021700020F480302860286820F4802002E028685D
:1021800040F480302860606888B1FFF7AFFD0646F4
:1021900009E0286840F480202860F0E7FFF7A6FDFA
:1021A000801B642875D828688003F7D50CE0FFF7FA
:1021B0009DFD064605E000BFFFF798FD801B6428E3
:1021C000F0D828688003F7D42078944E80074FF029
:1021D00001094FF000083BD5686810F00C0F07D0DC
:1021E0006868C0F38100022809D16868C00306D47A
:1021F0002868800714D5206901281FD110E02069C4
:10220000B0B1C6F80090FFF771FD074605E000BFCA
:10221000FFF76CFDC01B0228C4D828688007F7D5DB
:102220002868616920F0F80040EAC10028600FE0EA
:10223000C6F80080FFF75AFD074606E0E9E000BF58
:10224000FFF754FDC01B022823D828688007F7D465
:10225000207800072CD57248A169D9B1C0F8009048
:10226000FFF744FD074604E0FFF740FDC01B0228CE
:102270000FD8686A8007F7D56A484FF4FA510068AA
:10228000B0FBF1F0009000BF0098411E0091FAD21F
:102290000EE080E0C0F80080FFF728FD074604E06C
:1022A000FFF724FDC01B022875D8686A8007F7D4A1
:1022B0002078400760D5E8690027C00008D4E869A5
:1022C00040F08050E861E869012700F080500090FC
:1022D00055480168C90513D40168834641F48071EB
:1022E0000160FFF703FD824606E000BFFFF7FEFC3A
:1022F000A0EB0A0064284ED8DBF80000C005F5D535
:10230000E06801280AD008B1052813D0286A20F017
:1023100001002862286A20F0040002E0286A40F0E8
:1023200001002862E06841F2883B98B1FFF7DEFCCB
:1023300082460BE0286A40F004002862EEE700BF06
:10234000FFF7D4FCA0EB0A0159455AD8286A800748
:10235000F6D50CE0FFF7CAFC824605E0FFF7C6FCA5
:10236000A0EB0A0159454CD8286A8007F6D41FB162
:10237000E86920F08050E861E06988B36968C1F3DA
:102380008101022945D00228C6F8608004D0FFF7F9
:10239000ADFC044638E034E0FFF7A8FC074604E053
:1023A000FFF7A4FCC01B02282BD828688001F7D4B3
:1023B000206AB0F5803F05D16868A16820F400303C
:1023C00008436860D4E908010843696821F474117E
:1023D00008436860C6F86090FFF788FC044606E092
:1023E00015E000BFFFF782FC001B022809D828680F
:1023F0008001F7D50BE000BFFFF778FC001B022837
:1024000002D90320BDE8F88F28688001F4D40020A9
:10241000F8E70120F6E70000001002400000424209
:1024200080044242F40100200070004010B5401EBC
:10243000B0F1807F01D3012010BD4FF0E024606136
:102440000F21601705F0FAF80020A0610720206135
:10245000002010BD7047704730B590F83C20012A2D
:1024600020D0012280F83C20022380F83D30036810
:102470005C6824F070045C6003685C680D682C4341
:102480005C6003689C6824F080049C6003689C681E
:1024900049680C439C6080F83D20002180F83C1086
:1024A000084630BD022030BD10B5040003D094F8BA
:1024B0003D0010B107E0012010BD002084F83C0071
:1024C000204600F00DF8022084F83D00211D206810
:1024D00001F06EFA012084F83D00002010BD0000DC
:1024E00008B5234A01682348914208D1C16941F0E7
:1024F0000201C161C06900F00200009008BD1E4ADF
:1025000091420ED1C16941F01001C161C069002240
:1025100000F01000009011463620FFF751FC3620E5
:1025200022E0164A91420ED1C16941F02001C161F9
:10253000C069002200F02000009011463720FFF70C
:102540003FFC372010E00E4A9142D7D1816941F417
:10255000005181618069002200F400500090114612
:102560002C20FFF72DFC2C20BDE80840FFF71CBCF9
:102570000004004000100240001000400014004021
:10258000003401400168CA6842F00102CA60006874
:10259000016841F001010160002070470168CA68CC
:1025A00022F00102CA600068016A41F21112114270
:1025B00007D1016A9210114203D1016821F0010193
:1025C00001600020704770B5044690F83C00012877
:1025D00017D0012584F83C50022084F83D00206883
:1025E000826822F0770222F47F42826008685028D5
:1025F00037D00DDC202859D005DC88B3102841D114
:1026000051E0022070BD302853D040283AD13FE03D
:1026100060282ED070280BD0B0F5805F03D0B0F5C5
:10262000005F2FD110E02068816821F0070115E0DC
:10263000CB68D1E90121206804F036FD2168886863
:1026400040F0770088601DE0CB68D1E90121206867
:1026500004F02AFD2068816841F48041816011E026
:102660001EE0CA684968206804F0BCFD502120685B
:1026700006E0CA684968206804F0C5FD602120684A
:1026800004F0A8FD84F83D50002084F83C0070BDA3
:10269000CA684968206804F0A5FD40212068EFE77A
:1026A00000212068ECE710212068E9E7202120685C
:1026B000E6E730212068E3E7704770B5044600681C
:1026C00001694FF00005C943890715D4C168C943A2
:1026D000890711D4E91E01610120207720688069F3
:1026E0008007204602D0FFF7E7FF04E000F0CAF8B9
:1026F000204600F04CF9257720680169C943490755
:1027000017D4C168C943490713D46FF004010161AC
:10271000022020772068806910F4407F204602D094
:10272000FFF7CAFF04E000F0ADF8204600F02FF9F3
:10273000257720680169C943090716D4C168C943D0
:10274000090712D46FF00801016104202077206886
:10275000C0698007204602D0FFF7AEFF04E000F01A
:1027600091F8204600F013F9257720680169C943E4
:10277000C90617D4C168C943C90613D46FF0100144
:102780000161082020772068C06910F4407F20464E
:1027900002D0FFF791FF04E000F074F8204600F04B
:1027A000F6F8257720680169C943C90708D1C168CF
:1027B000C943C90704D1891E0161204600F004F90C
:1027C00020680169C943090609D4C168C9430906DB
:1027D00005D46FF0800101612046FFF73BFE2068C1
:1027E0000169C943490609D4C168C943490605D4EA
:1027F0006FF040010161204600F0A8F920680169EE
:10280000C94389060BD4C168C943890607D46FF050
:10281000200101612046BDE87040FFF71CBE70BD7D
:1028200000B585B0002100910191029103910068EB
:10283000104988421BD11048816941F0080181612B
:102840008069694600F00800049020200090022072
:102850000190032003900948FFF74EF908484168AA
:1028600021F4406141F0E06141F40061416005B054
:1028700000BD00000004004000100240000C0140B8
:1028800000000140704770B5044690F83C000D46CA
:1028900001280DD0012684F83C60022084F83D0018
:1028A00042B1042A18D0082A2AD00C2A4DD139E086
:1028B000022070BD206804F001FC2068816941F0AD
:1028C000080181612068816921F00401816120682B
:1028D00081692A69114311E0206801F0BBF8206882
:1028E000816941F4006181612068816921F480611E
:1028F0008161206881692A6941EA0221816124E0BD
:10290000206804F00BFC2068C16941F00801C16136
:102910002068C16921F00401C1612068C1692A6988
:10292000114311E0206804F02DFC2068C16941F4D6
:102930000061C1612068C16921F48061C1612068C2
:10294000C1692A6941EA0221C16184F83D60002021
:1029500084F83C0070BD10B5040003D094F83D002D
:1029600010B107E0012010BD002084F83C00204693
:1029700000F00CF8022084F83D00211D206801F0D1
:1029800017F8012084F83D00002010BD7047704703
:1029900010B504460068012201F050F8084920688B
:1029A000884202D00749884203D1416C41F400417A
:1029B00041642068016841F001010160002010BD00
:1029C000002C0140003401402DE9F04154490746F4
:1029D0000068096801260025524C88421DD1608B91
:1029E000401D81B26183002001F0CCF902F056F85D
:1029F0002670208A40F6B4724B49904201D9668213
:102A000005E0322801D2658203E0628A0AB13238D9
:102A100000E0323080B2208208604449386809689A
:102A2000884208D1E08A411CE182142803D9E5825A
:102A30003E48FFF7B3FD3E493868096888426CD1CB
:102A4000A08B411CA18328280AD9A58320793A4A62
:102A5000401CC0B2207137491167082800D3257186
:102A6000364F6020B989012907D002290FD0388A52
:102A700000EB4000C0F3D7010EE0218BB1FBF0F278
:102A800000FB121127482C3002F014FC08E0218BC7
:102A9000B1FBF0F200FB121122482C3003F098F841
:102AA000208B10F0010F00F10100208300D065623F
:102AB000A07840B3022828D0082829D00A2801D2BB
:102AC000401CA0701E48017801B105701D480178B6
:102AD00001B10570A08A411CA182B0F5166F06D91C
:102AE000B87A400702D56670E089E083A58216486F
:102AF0000178002911D0E17800290ED00570BDE8D9
:102B0000F04100F0DDBFA670DCE7FEF78BFA02E0D3
:102B100000F008FBA681A078D2E7BDE8F0810000B4
:102B2000CCA300203C000020380400404CA300202F
:102B30008CA300200000F0418898002054A60020BB
:102B40006C0000206E0000206D000020704710B562
:102B500004460068416994F83920C1F3C011212A64
:102B60000BD151B1416921F080014161206B08B165
:102B7000FEF708FD204604F0C4FC2068416994F883
:102B80003A20C1F38011222A0BD151B1416921F0C1
:102B900040014161606B08B1FEF7F4FC204604F08F
:102BA000A2FC002010BD704770B502680446106892
:102BB000D168536910F00F0F50D003F0010501F4F4
:102BC000907635435DD0C20705D0CA0503D5E26BC8
:102BD00042F00102E263420705D5DA0703D0E26B57
:102BE00042F00202E263820705D5DA0703D0E26B06
:102BF00042F00402E263020705D5DA0703D0E26B74
:102C000042F00802E263E26B002A33D0800604D56A
:102C1000880602D5204604F0E5FB20684069E16B98
:102C2000C0F38010090700D428B3204604F05BFCF1
:102C30002068416949061AD5416921F04001416186
:102C4000606BA0B11B494163606BFEF7B3FC0028C9
:102C500010D0606B416BBDE870400847830610D50B
:102C60008B060ED52046BDE8704004F0BBBB204665
:102C7000FFF799FF70BD2046FFF795FF0020E06346
:102C800070BD030606D50B0604D52046BDE870408E
:102C900004F0F3BB4006F3D54806F1D5D1682046D1
:102CA00021F04001D160202184F8391000F037FA7A
:102CB00070BD00005175000870B5040004D094F890
:102CC0003900002510B106E0012070BD84F83850AD
:102CD000204600F023F8242084F839002068C168D9
:102CE00021F40051C160204604F0C4FA2068016953
:102CF00021F4904101612068416921F02A0141617C
:102D00002068C16841F40051C160E563202084F867
:102D1000390084F83A00002070BD00002DE9F04130
:102D200086B000240094019402940394064603683C
:102D30004B48DFF828C1022103220515802763458F
:102D400053D1836943F480438361836903F48043EF
:102D50000493836943F0040383618069DFF804818D
:102D600000F0040004900802CDE9000103926946D6
:102D70004046FEF7C1FECDE9005469464046029444
:102D8000FEF7BAFE394D3848C5E90004C5E90247E7
:102D90002C61B8016C61C5E906402846FEF7C6FD06
:102DA00008B1FEF78AFA75636E62304D2E484435DD
:102DB000143801C5102091C52C4845F810494430FD
:102DC0006C61AC61EC61FEF7B1FD08B1FEF775FA1C
:102DD00035630022114625206E62FEF7F1FF2520A3
:102DE000FEF7E2FF06B0BDE8F081DFF884C063457E
:102DF000F8D1C36943F48023C361C36903F480231A
:102E00000493836943F0080383618069CDE900512D
:102E100000F00800CDE90320164D69462846FEF76C
:102E20006BFEE814CDE90004694628460294FEF7DB
:102E300063FE0E4D0C4888352838C5E90004C5E905
:102E400002472C616C61AC612846EC61FEF76EFDB7
:102E500008B1FEF732FA75636E62C3E700380140CD
:102E600000100240000801405800024088A50020E0
:102E700000480040000C0140F8B5044690F83A00C4
:102E800020283CD1C1B3BAB394F83800012836D019
:102E9000012084F83800A162A2850025E563222084
:102EA00084F83A00636B17489862636B1648D862DF
:102EB000636B16481863606B134645630846666B80
:102EC000216802463046091DFEF76EFD2068016844
:102ED0004168009184F83850C16841F48071C16044
:102EE0002068416941F0010141612068416941F078
:102EF000400141610020F8BDFFE70120FBE702200F
:102F0000F9E7000015750008DD7400082B72000851
:102F100090F83A30202B22D1F9B1F2B190F8383044
:102F2000012B1CD081628285C2850021C1632222CF
:102F300080F83A2080F838100168CA6842F480723C
:102F4000CA6001684A6942F001024A610068C168CA
:102F500041F02001C160002070470120704702202D
:102F60007047000070B500682B49884252D12B4C45
:102F700001266079B8B1E07800252828A07904F10D
:102F8000120118D000F07F0002F08CF820717F2829
:102F900035D0E278082A15D0482A22D0882A1AD0BB
:102FA000C82A2CD126E0A07900F01F01082929D1D8
:102FB000E070667126E018B1CD71FEF70DF81EE0E5
:102FC000CE711CE002281AD20A7802F00F0242EAFF
:102FD0000010087013E00A7802F0F00202430A7051
:102FE0000DE006280BD24A7802F00F0242EA0010E8
:102FF000487004E04A7802F0F00202434A70A6707A
:103000006571E570BDE8704004490122891D0448DE
:10301000FFF77EBF70BD0000004800406C0000203C
:1030200048A5002070472DE9F843044690F8390080
:103030001F4616460D46202850D1A5B19EB194F8E2
:10304000380001284AD0012084F838004FF00008E9
:10305000C4F83C80212084F83900FEF747FEA6849E
:103060008146E68426E00120BDE8F883E08C401E1E
:10307000E084A0684B46B0F5805F4FF000024FF04F
:1030800080012046009703D004F06AFAE8B90DE009
:1030900004F066FAC8B928882168C0F308004860BF
:1030A000206908B16D1C05E0AD1C03E0216815F82E
:1030B000010B4860E08C0028D8D14B46002240210B
:1030C0002046009704F04CFA08B10320CCE72020FA
:1030D00084F8390084F838800020C5E70220C3E76F
:1030E00090F83930202B18D1A9B1A2B190F838301E
:1030F000012B12D001628284C2840021C16321228B
:1031000080F8392080F838100068C16841F08001EB
:10311000C16000207047012070470220704770474F
:10312000FEE7000010B537A1384805F01DFF37480D
:1031300037A1143005F018FF344838A11E3005F0CF
:1031400013FF324838A1283005F00EFF2F482DA17B
:10315000323005F009FF2D482DA13C3005F004FF69
:103160002A482EA1463005F0FFFE28482EA15030F7
:1031700005F0FAFE254823A15A3005F0F5FE234854
:1031800029A1643005F0F0FE20482AA16E3005F038
:10319000EBFE1E4829A1783005F0E6FE1B4829A168
:1031A000823005F0E1FE194824A18C3005F0DCFEE8
:1031B000164822A1963005F0D7FE14481FA1A03072
:1031C00005F0D2FE114821A1BE3005F0CDFE0F481A
:1031D00020A1C83005F0C8FE0C481EA1D23005F071
:1031E000C3FE0A481BA1DC3005F0BEFE07481AA149
:1031F000E63005F0B9FEBDE810404FF4B57119484E
:10320000FCF7DDBF2D2D2E2D24200000D4A700209B
:103210002D2D2D2D4D687A20000000002D2D2E2DF6
:1032200025252020000000002D2D2D2D52706D2011
:10323000000000002D2D2E2D252520002D2D2D2DBB
:10324000000000002D2D2E2D000000002D2D3A2D08
:103250002D0000002D2D00002D2D556E6B6F776E0B
:103260002D2D00006AA6002010B5194C207850B30F
:1032700000202070617811B1607000F0EBFA00F06E
:10328000D5FCA089E18988420CD001F037FFA06A03
:10329000411EA162002805DC1920A062A089E081FE
:1032A00001F0EAFE0A482C3002F062FA0948C288AE
:1032B000817807480A3002F067FF01F00DF80448F2
:1032C0002C3002F075FBBDE810400120FEF7A4BBD6
:1032D0003C00002054A600203EB500241048009475
:1032E000019402948460C4600C494461016001252A
:1032F00005614FF460214460C161FEF787F808B1B1
:10330000FDF7DBFFCDE90045694605480294FDF76E
:10331000FFFF002801D0FDF7D0FF3EBD0024014093
:10332000DCA20020114808B5416941F0010141616A
:103330004069002200F00100009011460D20FEF7C8
:103340003FFD0D20FEF730FD002211460E20FEF756
:1033500037FD0E20FEF728FD002211460F20FEF754
:103360002FFDBDE808400F20FEF71EBD00100240F3
:103370002DE9F04186B0002000900190029003906A
:103380002E48816941F020018161816901F02001AD
:103390000491816941F010018161816901F010019E
:1033A0000491816941F004018161816901F00401A6
:1033B0000491816941F0080181618069204E00F02B
:1033C000080004900122FF213046FEF789FC1D4FC2
:1033D000012270213846FEF783FCDFF86C80012261
:1033E00041F203014046FEF77BFC0124FF20CDE9BA
:1033F0000004032569463046CDE90245FEF77CFB13
:103400007020CDE9000469463846CDE90245FEF753
:1034100073FBCDE900540294694640460394FEF7DD
:103420006BFB2003CDE900040220CDE90240694690
:103430004046FEF761FB06B0BDE8F0810010024097
:103440000010014000080140000C014010B58EB092
:1034500000240794089409940A940B941C2168464C
:103460000C94FCF7ACFE1F481D4901602321C0E904
:10347000011440F6F171C0E9031480218161FFF766
:1034800013F808B1FDF719FF4FF48050079007A912
:103490001448FFF798F808B1FDF70FFF1148FFF740
:1034A0005AFA08B1FDF709FF0B940BA90D480C94CB
:1034B000FEF7D2FF08B1FDF700FF6020CDE9000460
:1034C00002940422694607480494FFF7DCF908B126
:1034D000FDF7F3FE0348FFF7A3F90EB010BD00009F
:1034E000000400400CA300201CB500240F480094E9
:1034F0000D490194016041F61F41C0E9011440F2F9
:10350000E7318461C160FEF7CFFF08B1FDF7D5FE5A
:103510000094694605480194FEF79EFF002801D0FB
:10352000FDF7CBFE1CBD0000001000404CA30020A6
:103530001CB500240F4800940D490194016041F628
:103540001F41C0E9011441F28731C16080218161CE
:10355000FEF7AAFF08B1FDF7B0FE009469460548E2
:103560000194FEF779FF002801D0FDF7A6FE1CBDEF
:10357000001400408CA3002010B586B00024184829
:1035800000940194029403940494144905940160F6
:1035900041F61F41C0E90114C721C0E9031480218D
:1035A000C0E90541FEF780FF08B1FDF786FE4FF444
:1035B0008050009069460A48FFF705F808B1FDF70A
:1035C0007CFE049404A906480594FEF745FF0028F4
:1035D00001D0FDF772FE06B010BD000000340140BE
:1035E000CCA300200C4810B50A4901604FF4E1312A
:1035F0004160002181600C22C160C0E90412816138
:10360000C161FFF759FB002803D0BDE81040FDF76A
:1036100054BE10BD0038014008A500200C4810B56C
:103620000A4901604FF4E1314160002181600C22C0
:10363000C160C0E904128161C161FFF73DFB002850
:1036400003D0BDE81040FDF738BE10BD0048004073
:1036500048A50020FEE7704710B5194C207850B3FC
:1036600000202070617811B1607000F0F3F800F074
:10367000DDFAA089E189884202D101F023FB09E04B
:1036800001F03CFD0F4890F8500018B1A089E0818E
:1036900001F0F2FC0A482C3002F06AF80A48C288AD
:1036A000817807480A3002F06FFD01F05FF80448A6
:1036B0002C3002F07DF9BDE810400120FEF7ACB9D6
:1036C0003C0000208898002054A6002070B501F02E
:1036D000BDF9334D334C4FF00006A87A00073BD4B8
:1036E000A078062838D904F12C0002F041F833E024
:1036F000207870B32670607810B1667000F0AAF878
:10370000A87A000717D5A88A062806D2DFE800F0B5
:10371000030507090B0D244908E0244906E0244964
:1037200004E0244902E0244900E024491D482C30EB
:1037300001F0D6FE09E01B482C3002F019F81948B8
:10374000EA88A9780A3002F01FFD16482C3002F0F2
:103750002FF90120FEF760F9A0890128C8D00028C0
:10376000C6D0E08101F088FCA089052811D0032192
:103770004AF2010000F018FA03214AF2020000F0B8
:1037800013FA03214AF2030000F00EFA0CA000F035
:1037900023FABDE8704003482C3002F099B90000CC
:1037A00054A600203C000020B63D0108B6BD01082B
:1037B000B63D0208B6BD0208B63D0308B6BD000816
:1037C0004E75626C61206973206F6E6C696E650A5C
:1037D000000000007047000010B51B4C2022194962
:1037E000204600F08FFE1749A1F51C72488840BAA8
:1037F0005080888840BA9080C88840BAD0800889B4
:1038000040BA1081488940BA5081C88940BA1082B4
:10381000088A40BAD081488A40BA5082888A40BA21
:103820009082C87FA5280CD0A520C87720222046EA
:1038300001F058F9BDE8104014220449044801F091
:1038400051B910BDC4A8002000F00708A400002052
:1038500000E007082DE9F0410025194C194EA84653
:103860004FF49677207888B115486D1C84F8008055
:10387000ADB22C3001F07CFF1148F288B1780A30EB
:1038800002F082FC0E482C3002F092F8BD42E9D3DF
:103890000B482C3001F06CFFE08BE08103214AF2F1
:1038A000010000F081F903214AF2020000F07CF9E6
:1038B000BDE8F04103214AF2030000F075B90000B1
:1038C0003C00002054A600207047FEF715BA000007
:1038D0000D48016841F00101016041680B4A114047
:1038E000416001680A4A11400160016821F48021A9
:1038F0000160416821F4FE0141604FF41F018160C5
:103900000449C00308607047001002400000FFF83F
:10391000FFFFF6FE08ED00E00148FEF7CEBE000016
:103920004CA300200148FEF7C8BE00008CA3002075
:103930000148FEF7C2BE0000CCA3002010B5194C10
:10394000207850B300202070617811B16070FFF7CB
:1039500081FF00F06BF9A089E189884202D100F073
:1039600035FE09E001F0CAFB0F4890F8A40018B139
:10397000A089E08101F080FB0A482C3001F0F8FEBC
:103980000A48C288817807480A3002F0FDFB00F03F
:103990007FFA04482C3002F00BF8BDE810400120FB
:1039A000FEF73AB83C0000208898002054A600207A
:1039B000F0B502681C4B1D4D1D4E1E4F1E4C4FF0A6
:1039C000804C984209D0A04207D0604505D0A8425B
:1039D00003D0B04201D0B84204D122F0700E4A6840
:1039E00042EA0E02984209D0A04207D0604505D0B5
:1039F000A84203D0B04201D0B84203D122F44075AE
:103A0000CA682A4322F080054A692A4302608A680C
:103A1000C2620A688262984201D0A04201D109695B
:103A2000016301214161F0BD002C01400004004010
:103A300000080040000C00400034014010B5012394
:103A4000046A8B409C430462036A8A401343036206
:103A500010BD0000F0B5026A22F010020262026A94
:103A6000436884690D6824F4E64444EA05248D68BB
:103A700022F0200242EA05120F4D104EA84201D05A
:103A8000B04206D1CF6822F0800242EA071222F04B
:103A90004002A84201D0B04207D14D6923F44063EF
:103AA00043EA85038D6943EA85034360846149687D
:103AB00081630262F0BD0000002C0140003401402F
:103AC000194901F51C700A88130A037042704A886C
:103AD000130A8370C2708A88130A03714271CA88FC
:103AE000130A8371C2710A89130A037242724A89E6
:103AF000130A8372C2728A89130A037342730A8A91
:103B0000130A8373C273CA89130A037442744A8AFC
:103B1000130A8374C274898A0A0A027541750146C0
:103B20002022024800F0DEBF54A6002000F0070863
:103B300038B51748FFF738F8154800680168C1F331
:103B40000011002922D00168002441680091016819
:103B500040680F48FEF7FBFF0E48006840680E4DB6
:103B6000C0F1FA0028800D4804700D48FDF7C2F836
:103B70000B48FDF7EFF90A48FCF7D2FF2C80BDE8AF
:103B80003840FA2206490248FFF776B938BD0000EE
:103B900008A5002088A50020E00100203E000020AC
:103BA0000CA40020FEE70000094A10B5030A937038
:103BB000D070080A507191710A20FDF72DFFBDE801
:103BC00010404FF6FF73072201490248FFF72BBA56
:103BD0007700002008A5002070B5034605F034FFEB
:103BE000C4B20B480021047104E05A5C4518491C1A
:103BF0006A71C9B2A142F8D30A20FDF70DFF621D18
:103C0000BDE870404FF6FF7301490248FFF70BBA59
:103C1000E000002008A50020034A00EB400002EB72
:103C20008000416070470000889800202DE9F0472F
:103C30000026274FB04600BF06EB460507EB85047C
:103C4000607A58BB57F825006168FCF725FBFCF744
:103C500048FD01F00DFA0A2190FBF1F0401CFCF741
:103C600025FD814649466068FCF7C4FA57F82510DF
:103C7000FCF794FD6068494602D2FCF7BBFA0AE003
:103C8000FCF70AFB57F82510FCF792FD07D24946CE
:103C90006068FCF701FB606084F8088013E057F867
:103CA00025006168FCF7F8FAFCF71BFD01F0E0F96C
:103CB000FCF7FCFC4946FCF771FD04D857F82500D9
:103CC000606001202072761C302EB5DBBDE8F087E5
:103CD000889800202DE9F0471E48DFF87CA04FF0BF
:103CE0008241002680460AF16009016006EB460029
:103CF00000240AEB800709EB800500BF57F8240079
:103D0000D8F80010FCF776FA55F82410FCF746FDB9
:103D100055F82400D8F8001002D8FCF7BDFA0CE0E2
:103D2000FCF768FA57F82410FCF738FD07D855F867
:103D30002400D8F80010FCF75DFA45F82400641C54
:103D4000E4B2032CDAD3761CF6B2082ECED3BDE84B
:103D5000F0870000E4010020E4A80020084810B526
:103D60000121C0F8881100F5C47000BF00BF002118
:103D700001600120FDF750FEBDE8104000F08EBE4E
:103D8000008022422DE9F047C0EB00200C460025C0
:103D900040F2FD264008FCF792FCDFF89080814657
:103DA000B4FBF6F006FB1044FF2C0ED205EB4507E2
:103DB000C4F1FF0048F82790FCF778FC08EB870770
:103DC00078602046FCF77BFC12E0B4F5FF7F11D24F
:103DD000A4F1FF00FCF76AFC05EB450208EB820743
:103DE00048F82200C4F5FF70C7F80490FCF75EFCA9
:103DF000B86010E0A4F2FD204042FCF757FC05EB50
:103E0000450748F82700A4F5FF70FCF74FFC08EBC6
:103E10008701C1E9010960346D1CEDB2A4B2082D1F
:103E2000BED3BDE8F047FFF755BF0000E4A800206F
:103E300070B515460C4606460023200602D500F054
:103E40009BFA01E000F0FAFA60065B1C040EDBB29C
:103E5000082BF2D30023300602D500F08DFA01E0E2
:103E600000F0ECFA70065B1C060EDBB2082BF2D3F6
:103E70000023280602D500F07FFA01E000F0DEFA08
:103E800068065B1C050EDBB2082BF2D370BD000088
:103E90002DE9FE4FD64DD74ED74F00244FF0854821
:103EA000052094FBF0F100FB1140002804EB4400D6
:103EB0004FEA40007DD0FCF7F9FB0090D5F8E81000
:103EC000A035FCF797F93146FCF7ECF93946FCF7D9
:103ED0001BFA05F037F8E968FCF7E4F94146FCF70E
:103EE00089F9FCF7FEFB0FFA80FB0098A96CFCF740
:103EF00081F93146FCF7D6F93946FCF705FA05F0A9
:103F00001FF8E968FCF7CEF94146FCF773F9FCF7B6
:103F1000E8FB0FFA80FA0098A96CFCF76BF93146C0
:103F2000FCF7C0F93946FCF7EFF905F00BF8296802
:103F3000FCF7B8F94146FCF75DF9FCF7D2FB0FFA44
:103F400080F90098A96CFCF755F93146FCF7AAF9FD
:103F50003946FCF7D9F904F0F3FF55F8A019FCF73E
:103F6000A1F94146FCF746F9FCF7BBFB01B2A348B7
:103F700053460288A248CDE900B24A4604F030FF19
:103F8000641C3C2C8CDBD5F8A0004FF080417C35C4
:103F9000FCF730F9FCF7A5FBDFF8689203B240228A
:103FA000B9F8000000901146954804F089FC686A51
:103FB00000E0BEE0FCF795FB03B2402211469048BA
:103FC00004F0D9FBD5F8A800FCF78BFB01468E4B1B
:103FD0003C228B4801F054FB686FFCF79BFB84B2DA
:103FE000B34631462868FCF75DF9BA463946FCF716
:103FF0008BF904F0A7FFA96CFCF754F94146FCF7D4
:10400000F9F8FCF76EFB07B259462868FCF74AF945
:104010005146FCF779F904F093FFA96CFCF742F9DB
:104020004146FCF7E7F8FCF75CFB402601B20220B2
:104030000096CDE9010433463A46714804F0D0FDBC
:10404000D5F88000FCF766FB87B25946E868FCF7B4
:1040500029F95146FCF758F904F074FF696DFCF733
:1040600021F94146FCF7C6F8FCF73BFB04B2594680
:10407000E868FCF717F95146FCF746F904F060FFD1
:10408000696DFCF70FF94146FCF7B4F8FCF729FB22
:1040900001B2402322465A48CDE9006704F0A0FE51
:1040A000D5F88C00FCF736FB87B25946A869FCF7B7
:1040B000F9F85146FCF728F904F044FF296EFCF7A3
:1040C000F1F84146FCF796F8FCF70BFB04B25946B1
:1040D000A869FCF7E7F85146FCF716F904F030FF41
:1040E000296EFCF7DFF84146FCF784F8FCF7F9FA93
:1040F00001B2402322464248CDE9006704F070FE39
:10410000002040220090032311463D4804F089FC22
:104110004022012311463A4804F02DFBB9F8000073
:104120004022009003231146354804F0C9FBBDE846
:10413000FE8FFCF7BBFA0090D5F8E810A035FCF72D
:1041400059F83146FCF7AEF83946FCF7DDF804F0D3
:10415000F9FEA969FCF7A6F84146FCF74BF8FCF715
:10416000C0FA0FFA80FB0098A96CFCF743F83146BF
:10417000FCF798F83946FCF7C7F804F0E1FEA969A6
:10418000FCF790F84146FCF735F8FCF7AAFA0FFA6D
:1041900080FA0098A96CFCF72DF83146FCF782F8FC
:1041A0003946FCF7B1F804F0CDFE2968FCF77AF83F
:1041B0004146FCF71FF8FCF794FA0FFA80F90098D3
:1041C000A96CFCF717F83146FCF76CF83946FCF798
:1041D0009BF804F0B5FE55F8A019FCF763F84146CA
:1041E000FCF708F8FCF77DFA01B20648C0E60000CB
:1041F00088980020D00F4940000034430A00002076
:10420000680000200800002092A8002010B5244972
:104210000D20FFF701FD23490E20FFF7FDFC224989
:104220000F20FFF7F9FC21490D2000F07DFF204908
:104230000E2000F079FF1F490F2000F075FF1E4986
:10424000102000F071FF1D49112000F06DFF1C4986
:10425000122000F069FF0021132000F065FF1948CB
:104260000C21008DB0FBF1F201FB1200062805D2F3
:10427000BDE810401449182000F056BF134C182018
:10428000214600F051FF1248D0F82001A04205D08D
:10429000BDE810400F491820FFF7BEBC10BD00005C
:1042A0000000F0420000E0420000D44200007042F2
:1042B00000006042000054420000F0410000204233
:1042C000000048426AA600200000B0410000A4425D
:1042D00088980020000032431B4830B481881B4876
:1042E000027A914209D001720020194B194C8022A8
:1042F0001A542254401CFA28FAD307291ED2DFE8A8
:1043000001F01D1D04090E131800104830BC0930BF
:1043100003F018BA0D4830BC093003F0D3BA0B488B
:1043200030BC093003F09EBB084830BC093003F0B4
:104330001DBC064830BC093003F094BC034830BCB7
:10434000093003F08BB9000054A600203C00002087
:10435000308A00202A8B00200020054B054A80214E
:1043600019541154401CFA28FAD3FCF75BBE000024
:10437000308A00202A8B00202E4A0121C2F88811A1
:104380002D48C0F88C11C0F8901100F5C67002F5E8
:10439000C47200BF00BF00BF00BF00BF00BF00BFAE
:1043A00000BF00BF00BF00BF00BF00BF00BF00BF15
:1043B00000BF00BF00BF00BF00BF00BF00BF00BF05
:1043C00000BF00BF00BF00BF00BF00BF00BF00BFF5
:1043D00000BF00BF00BF00BF00BF00BF00BF00BFE5
:1043E00000BF00BF00BF00BF00BF00BF00BF00BFD5
:1043F00000BF00BF00BF002111600160416000BF2D
:1044000000BF00BF00BF00BF00BF00BF00BF00BFB4
:1044100000BF00BF00BF00BF00BF00BF00BF00BFA4
:1044200000BF00BF00BF00BF00BF00BF00BF00BF94
:1044300000BF704700802242008021422F4A0121A4
:10444000C2F888112E48C0F88C11C0F8901100F500
:10445000C67002F5C47200BF00BF00BF00BF00BF3E
:1044600000BF00BF00BF00BF00BF00BF00BF00BF54
:1044700000BF00BF00BF00BF00BF00BF00BF00BF44
:1044800000BF002111600160416000BF00BF00BF9C
:1044900000BF00BF00BF00BF00BF00BF00BF00BF24
:1044A00000BF00BF00BF00BF00BF00BF00BF00BF14
:1044B00000BF00BF00BF00BF00BF00BF00BF00BF04
:1044C00000BF00BF00BF00BF00BF00BF00BF00BFF4
:1044D00000BF00BF00BF00BF00BF00BF00BF00BFE4
:1044E00000BF00BF00BF00BF00BF00BF00BF00BFD4
:1044F00000BF00BF00BF00BF00BF70470080224266
:104500000080214210B5002306E000BF30F8024BC6
:1045100021F813405B1C9BB29342F7D310BD0000FF
:1045200010B51F490D2000F0FFFD1E490E2000F0C0
:10453000FBFD1D490F2000F0F7FD1C49132000F082
:10454000F3FD1B488089052824D00021102000F0AD
:10455000EBFD0021112000F0E7FD0021122000F00A
:10456000E3FD144C0A20214600F0DEFD21460B201D
:1045700000F0DAFD21460C2000F0D6FD0E480F4970
:10458000D0F82401884201DA0D4900E00D491820D5
:1045900000F0CAFDBDE810400B490D2000F0AAB89C
:1045A0000000F0420000E0420000D442000034432A
:1045B0003C0000200000B4C2889800200000704237
:1045C000000048C200003243CDCCCC3D2DE9F0477D
:1045D000414F4FF00C09398D7D8DB1FBF9F209FB8C
:1045E0001210C01EC0EB0010400000EB5500FCF79D
:1045F0005DF83A4C80460F3DA067BE8D0A20B6FBA1
:10460000F0F005EB450100EB4100FCF74FF80546E3
:104610000F3EC4F8840006EB46004000FCF746F865
:1046200001462F4EC4F890002E48B04501D1A06736
:1046300003E0E26F824200D1E667B54202D1C4F8DE
:10464000840005E0D4F88820824201D1C4F8886053
:10465000B14202D1C4F890002EE0D4F89410814207
:104660002AD1FBF793FD602590FBF5F105FB1100C6
:1046700081B21D4801F08FFAFCF721F8C4F8F00070
:104680009434FBF783FD90FBF5F105FB110081B23B
:10469000154801F080FAFCF712F8A066FBF776FDEA
:1046A00090FBF5F105FB110081B20F4801F056FABD
:1046B000FCF705F826606067398DB1FBF9F209FB5C
:1046C0001210062801D2094900E00949BDE8F04767
:1046D000182000F029BD00006AA60020889800205C
:1046E0000000B4C200008743680000200000B04111
:1046F0000000A4422DE9F0411B4D00EB400605EB04
:104700008604884600276068FBF774FD55F826107C
:10471000FCF744F86068414602D2FBF76BFD0AE003
:10472000FBF7BAFD55F82610FCF742F807D24146D0
:104730006068FBF7B1FD60602772BDE8F08155F855
:1047400026006168FBF7A8FDFBF7CBFF00F090FCAB
:10475000FBF7ACFF4146FCF721F8EED855F82600F0
:10476000606001202072E8E7889800202DE9FE4F64
:104770008D488F4C8D49458A19266068FBF78CFD62
:10478000FBF7AFFF0746606BFBF7ABFF0146062D5B
:104790003A4608D805EBC500864B00EB051003EB45
:1047A0000020802301E084488023CDE90060834815
:1047B00000F0B0FE6068FBF794FF02468049492094
:1047C000CDE90001802300217C4800F0E5FF7D4910
:1047D0006068FBF70FFDFBF784FF784E02462C3E26
:1047E000794D70797349C0EBC00000EB80008C39C3
:1047F0002B8808444FF00509CDF80090CDE901035E
:10480000232359216D4801F005F8DFF8C0A1606845
:104810005146FBF7EFFCFBF764FF07462069FBF707
:1048200060FF01466A4B3A46644801F04DF894F83F
:10483000740068490028684F60684FF0070815D079
:10484000FBF7D8FCFBF74DFF0246B0792B88C0EB95
:10485000C00101EB0010C119CDF80080CDE90113B2
:1048600017230A21554800F0D5FF11E0FBF7C2FCE1
:10487000FBF737FF0246B0791723C0EBC00101EB0D
:1048800000103844CDE900800A214C4800F084FF34
:1048900051466068FBF7AEFCFBF723FF02467079D8
:1048A0004D4B298800EBC000453303EBC0001823B3
:1048B000CDE9003002916221404800F0ABFFF07971
:1048C00080B34649206E88422CDA45496068FBF780
:1048D00091FCFBF706FF064642492069FBF78AFC7C
:1048E000FBF7FFFE01462888344B00900C3B324614
:1048F000324800F0CEFF3C496068FBF77BFCFBF7D9
:1049000009FF86B239492069FBF774FCFBF702FF07
:1049100081B22A880420CDE90002022332462748CA
:1049200004F0B6FAE06CFBF7DCFE024630484E4677
:10493000CDE9009080230021204800F02DFF2D4973
:10494000E06CFBF757FCFBF7CCFE024622492888B7
:1049500080390096CDE9011080230021174800F02E
:1049600059FF206CFBF7D6FE86B24FF08041A06A5B
:10497000FBF740FCFBF7CEFE82B229880620CDE98A
:104980000001334605210D4804F082FAA06AFBF7C6
:10499000A8FE02B20A20009079230321074804F000
:1049A00049FABDE8FE8F000054A600200000C8416F
:1049B0008898002042C30308424004086800002091
:1049C000B6BD030800008A42080000200000304104
:1049D000C8A2002000007842427304080000C842C8
:1049E0000000D8410000504200003442000038422C
:1049F000427204080000A04010B50F490320FFF7E1
:104A00000BF90E490620FFF707F90D49002000F0C9
:104A10008BFB0021042000F087FB0A49032000F0F3
:104A200083FB0949062000F07FFB0021BDE8104010
:104A3000092000F079BB00000000144300002A4365
:104A40000000C8410000CE420000E6420B48808AC8
:104A5000062806D2DFE800F0030507090B0D084918
:104A600008E0084906E0084904E0084902E008496E
:104A700000E00849084800F0BFBF000054A600202D
:104A8000B63D0108B6BD0108B63D0208B6BD020834
:104A9000B63D0308B6BD0008680000202DE9F041CE
:104AA000DFF83C80002400BF04EB440708EB8705D7
:104AB000A868FBF72FFEC6B26868FBF72BFEC5B2ED
:104AC00058F82700FBF726FEC0B232462946FFF70A
:104AD000AFF9641CE4B2082CE6D3BDE8F081000015
:104AE00044A900202DE9F05FA0F1006415468A4634
:104AF0008346B4F5002F5FD2FCF7EAFFE70AC4F360
:104B00004906C6F58064A54200D82C46DFF8AC9073
:104B10004FF0006000EBC72080464FF480622749C9
:104B2000FFF7F0FC00204FF6FF7106E0331839F86C
:104B300013208A4203D1401C80B2A042F6D3A04287
:104B40002ED2404600F086F84CF25030FCF7B6FB0F
:104B50001B48016921F0020101610020494606E07D
:104B60003AF810208319401C21F8132080B2A0428B
:104B7000F6D3124940464FF4806200BF00F062FA5B
:104B8000A54215D0281B0AEB440A0BEB440B002668
:104B900085B24FF480647F1CA542B9D82C46B7E794
:104BA0004CF25030FCF78AFB224651465846E5E766
:104BB000BDE8F05FFCF742BFBDE8F09FC89A002057
:104BC0000020024010B51A491720FFF725F8194CAC
:104BD0001720214600F0A8FA2146102000F0A4FA80
:104BE0001549112000F0A0FA1449122000F09CFA97
:104BF00013480C21008DB0FBF1F201FB12000628D6
:104C000005D2BDE810400F49182000F08DBA0E4CB7
:104C10001820214600F088FA0C48D0F82001A04264
:104C200005D0BDE810400A491820FEF7F5BF10BDB9
:104C3000000070420000F0410000204200004842A5
:104C40006AA600200000B0410000A442889800201D
:104C500000003243064A0021D16106490A6942F048
:104C600002020A614861086940F04000086170472B
:104C7000A8A900200020024010B50D49002000F036
:104C800053FA0C49042000F04FFA0B49032000F0BE
:104C90004BFA0A49062000F047FA0021092000F0EB
:104CA00043FABDE8104006490620FFF723BD000087
:104CB000000092C2000070420000144300002A432A
:104CC000CDCCCC3D2DE9F05F954C0127954920795D
:104CD000954E964DDFF858B24FF000094FF08248DC
:104CE0004FF00A0A092846D2DFE800F01F4969059B
:104CF0009BBEDC7EF500F088A8B141460120FEF79E
:104D00008BFF4146012000F00FFAF088FBF7D7FC3B
:104D10000146082000F008FA84F8069084F807900D
:104D20004E46286E72E00420BAE0308828B3012095
:104D300000F0FAF93188B1FBFAF0FBF7C0FC286605
:104D400084F80690E771FBF7E5FC82B279A17B4815
:104D500004F00AF931887248B1FBFAF20AFB121228
:104D600077A1203004F000F96771286E5946884217
:104D70001DDDD3E0E863BDE8F09F2771FBE7708895
:104D8000D8B141460120FEF747FF4146012000F01F
:104D9000CBF97088FBF793FC286684F8069084F8BA
:104DA000079072E06849286EFBF7AEFA5946FBF7A8
:104DB000ABFA6649FBF776FADCE7022070E00120E7
:104DC00000F0B2F9B188B1FBFAF0FBF778FC286685
:104DD00084F80690E771FBF79DFC82B255A1574815
:104DE00004F0C2F8B18870E0308AC0B141460120B9
:104DF000FEF712FF4146012000F096F9308AFBF7DA
:104E00005EFC2866A7714E4684F80790FBF782FC8B
:104E100082B24FA1494804F0A7F86671C2E70820A2
:104E20003EE07089F0B1012000F07EF97189B1FB9C
:104E3000FAF0FBF744FC2866A771E771FBF76AFC00
:104E400082B23CA13D4804F08FF871893448B1FB2F
:104E5000FAF20AFB12123AA1203004F085F86771C9
:104E6000286EA3E705201BE0B089C0B141460120B0
:104E7000FEF7D2FE4146012000F056F9B089FBF75B
:104E80001EFC2866A77184F80790FBF743FC82B2EA
:104E90002FA12A4804F068F80220607182E70620FA
:104EA000207168E7012000F03FF9F189B1FBFAF0C9
:104EB000FBF705FC2866A771E771FBF72BFC82B2B4
:104EC0001CA11E4804F050F8F189B1FBFAF20AFB6C
:104ED00012121BE0FFE7012000F026F9B046308BEC
:104EE0005646B0FBF6F0FBF7EAFB02212866A171FB
:104EF000E771FBF70FFC82B20EA1104804F034F802
:104F0000B8F81800B0FBF6F106FB110204480CA13A
:104F1000203004F029F80320607126E70E4829E7C5
:104F20003C000020000098416AA6002088980020DC
:104F30000000A0422530326400000000C8A200201A
:104F40002530316400000000000048420000EC42BF
:104F500025303464000000000000EA4270B5194CAE
:104F60001720214600F0E0F817488089022823D056
:104F70000021102000F0D8F80021112000F0D4F812
:104F80000021122000F0D0F8104D0A20294600F030
:104F9000CBF829460B2000F0C7F829460C2000F07A
:104FA000C3F80B48D0F82401A04201DA094900E017
:104FB0000949182000F0B8F8BDE8704007491720EB
:104FC000FFF798BB000070423C0000200000B4C214
:104FD00088980020000048C200003243CDCCCC3D70
:104FE00030B595B028216846FBF7E9F814210AA8E6
:104FF000FBF7E5F818210FA8FBF7E1F801210804F9
:10500000CDE900100024029402250491CDE9075057
:105010004FF4E01009906846FDF786F80F20CDE9BF
:105020000A056802CDE90C4002210AA80E94FCF79B
:105030006FFFA80311900F950FA8FCF7F3FE15B0B2
:1050400030BD00002DE9F04116460F46054600240C
:105050000AE000BF37F81420002329460120FCF79E
:10506000F7FC641CA4B2AD1CB442F3D3BDE8F081DC
:10507000002800DA404270470948C089022807D05A
:10508000032809D0042805D0052807D1FFF79ABDC9
:10509000FFF7BCB8FFF7B0BCFFF75EB97047000080
:1050A0003C00002066281FD00CDC3F2814D004DC14
:1050B000062813D007280DD170474F2812D05B283F
:1050C00008D10DE06D2811D06F2815D07D280FD0A4
:1050D0007F280FD0FF2070470020704701207047C5
:1050E0000220704703207047042070470520704756
:1050F0000620704708207047092070470948C0897A
:10510000022807D0032809D0042805D0052807D194
:10511000FFF724BFFFF704BAFFF7AEBDFBF782BF6E
:10512000704700003C000020024A00EB400042F8BB
:105130002010704788980020F0B52B4B9C1C1878E5
:105140002678C108F50876074007B70E800E5A7812
:10515000667840EA521047EA561402F01F0206F041
:105160001F06A94203D9A1F10101C9B202E001D28F
:1051700001F1010104F10105A84202D9801EC0B26B
:1051800003E0451CA54200D2801CB24203D9A2F123
:105190000102D2B202E001D202F101024FEAC124BF
:1051A00044EA401444EA02040F4D4FEA14264FEA41
:1051B0005101EC801E705C704FEAC1234FEA500031
:1051C00043EA40134FEA52024FEA51014FEA5000BE
:1051D0004FEAC12143EA020341EA40102B8140EA31
:1051E00052006881F0BD00000000002010B5802949
:1051F0000FDA802A0DDA00290BDB002A09DB0548CB
:10520000054B03EB012104788C541144407881F85C
:10521000800010BD000000200402002010B580298D
:105220000DDA802A0BDA002909DB002A07DB0448A3
:105230001C0A00EB01208454104480F8803010BD1B
:10524000040200202DE9F04F83460998184E1844B7
:1052500000EB400091468A4600244FEA40080025B2
:1052600008EB4507F05DE040C00708D109EB0400FA
:1052700002B20AEB450001B25846FFF7B7FFB81972
:105280004078E040C00709D109EB040002B20AEB04
:105290004500401C01B25846FFF7A8FF6D1CEDB257
:1052A000032DDDD3641CE4B2082CD8D3BDE8F08F05
:1052B000A2B7000811482029818004D2C8B21F2259
:1052C000C1F11F010EE0402907D2A1F12000C2B2B6
:1052D000C1F13F00C0B21F2105E0C1F15F00C2B2C1
:1052E0001F204039C9B2D20042EA9003034A41EA82
:1052F0008010921C13705070704700000000002056
:10530000044A40201060044AD1600249091F086025
:1053100070470000140801400010014070B56E4C49
:1053200000210546C4F898116C48C0F88011C4F8F3
:105330009011282004F5C874FCF76EFB0120206052
:105340001420FCF769FBFD21284600F0DBFA12214E
:105350002846FFF7D5FFFD21284600F0D3FAB121FA
:105360002846FFF7CDFFAE21284600F0CBFAA42156
:10537000284600F0C7FA1521284600F0C3FA00219C
:105380002846FFF7BDFF7F212846FFF7B9FF7521AB
:10539000284600F0B7FA00212846FFF7B1FF7F2129
:1053A0002846FFF7ADFFB321284600F0ABFAF12104
:1053B0002846FFF7A5FFCA21284600F0A3FA7F215F
:1053C0002846FFF79DFFA021284600F09BFA742194
:1053D0002846FFF795FFA121284600F093FA002107
:1053E0002846FFF78DFFA221284600F08BFA002106
:1053F0002846FFF785FFAB21284600F083FA0121FC
:10540000284600F07FFAB421284600F07BFAA0215C
:105410002846FFF775FFB5212846FFF771FF552194
:105420002846FFF76DFFC121284600F06BFAC8211E
:105430002846FFF765FF80212846FFF761FFC0215E
:105440002846FFF75DFFC721284600F05BFA0F21D1
:105450002846FFF755FFB121284600F053FA3221C4
:105460002846FFF74DFFB221284600F04BFAA42151
:105470002846FFF745FF00212846FFF741FF00219E
:105480002846FFF73DFFBB21284600F03BFA1721D5
:105490002846FFF735FFB621284600F033FA0121F0
:1054A0002846FFF72DFFBE21284600F02BFA0521E4
:1054B0002846FFF725FFA621284600F023FA2846B4
:1054C00000F056F9284600F073FA2846BDE870400F
:1054D000AF2100F017BA00000000214200802142F5
:1054E000F0B50B4B002000225FEA002606EB4205D8
:1054F0006C18677803EB0224521C275404444D5D5A
:1055000084F88050802AF1DB401C8028EBDBF0BD62
:10551000040200202DE9F04F1046DDE909AE1D4DD3
:1055200002EB0A0631E00C46CF182BE0A4EB010C8D
:10553000A0EB020808FB03CC4FEA4C09002820DD51
:1055400004EB010B0BF1010CBCF1800F19DA03FB2A
:105550000AFCB9EB4C0F14DA0EEB090C9CF801C0F5
:10556000BCF1000F03D005EB0B2808F800C01EF8B3
:1055700009C0BCF1000F04D005EB0B28804488F86B
:1055800080C0641CA742D1DC401C8642CBDCBDE855
:10559000F08F0000040200202DE9FF4F81B00026AB
:1055A00003EBC3008000DFF860B00090009906EBC9
:1055B000460001EB80080398002500EBC60A002492
:1055C00001270AEB0500AF400FFA80F908EB040150
:1055D0001BF80100384207D002984A46204401B225
:1055E0000E9B0198FFF71AFE641CA4B20C2CEDD39D
:1055F0006D1CADB2082DE2D3761CB6B2032ED5D306
:1056000005B0BDE8F08F0000009F00082DE9FF4FB6
:1056100081B000266E204343DFF860B0009306EBB4
:105620004600009900EBC60001EB400803980025F6
:1056300000EBC60A002401270AEB0500AF400FFA71
:1056400080F900BF08EB04011BF80100384206D0C6
:1056500002984A46204401B20198FFF7C7FD641C36
:10566000E4B2162CEED36D1CEDB2082DE2D3761CFD
:10567000F6B2052ED3D305B0BDE8F08FCCAB000851
:105680002DE9F84381460025481E984616460C46EB
:1056900007B2701902B239464846FFF7A7FD6D1CE4
:1056A000EDB2082DF5D300252F4616E0FD2C11DABA
:1056B0000146242823D02E2824D03A2825D02D286E
:1056C00026D0A1F13000C3B20097324621464846A9
:1056D000FFF7B8FD6D1CEDB2A41D18F805000028F9
:1056E000E4D1002524B2701902B221464846FFF7E2
:1056F0007DFD6D1CEDB2082DF5D3BDE8F8830B23BD
:105700000097E2E70A230097DFE70D230097DCE725
:105710000C230097D9E700B50346152100F0F2F8F5
:1057200000211846FFF7ECFD7F211846FFF7E8FD42
:105730007521184600F0E6F800211846FFF7E0FD55
:105740007F2118465DF804EBFFF7DABD70B5FAF774
:105750001DFD044600BFFAF719FDC5B200BFFAF7F8
:1057600015FDE102C0B241EA4511014388B270BDA6
:1057700030B50021074C0B46002004EB0122151820
:105780001354401C85F880308028F8DB491C8029A0
:10579000F2DB30BD040200202DE9FF4F81B0002470
:1057A000DDF8388001214FEAE87008EB50701F46A1
:1057B00001EBE00B29E0002505EBC401414526DAA9
:1057C0000026012000FA05F9039804FB07FA00EB14
:1057D000C400284400B200900FE00F9931441AF839
:1057E000010010EA090F06D00298304401B2DDE949
:1057F0000020FFF7FBFC761CF6B2BE42EDDB6D1C11
:10580000EDB2082DD8D3641CE4B2A345D3DC05B0B7
:10581000BDE8F08F2DE9FF4F81B00024DDF838801E
:1058200001214FEAE87008EB50701F4601EBE00BD6
:105830002AE0002505EBC401414527DA00260120B6
:1058400000FA05F9039804FB07FA00EBC4002844AA
:1058500000B2009010E00F9931441AF8010010EAEC
:10586000090F07D00298109B304401B2DDE90020F7
:10587000FFF7D4FC761CF6B2BE42ECDB6D1CEDB239
:10588000082DD7D3641CE4B2A345D2DC05B0BDE833
:10589000F08F2DE9F8431E4690460D4681460024C0
:1058A000089F0CE02038C3B2742D05DA4246294621
:1058B00048460097FFF770FE641CE4B20C35305D7B
:1058C0000028EFD1BDE8F8832DE9F0411E461746C8
:1058D0000D46804600240FE02D2802D03038C3B298
:1058E00000E00A236A2D04DA3A4629464046FFF7CB
:1058F0008DFE641CE4B21635305D0028ECD1BDE8A5
:10590000F081000006480022C0F89421C0F89821D8
:10591000044AD1600121C0F89811C0F89411704771
:105920000000214200100140F0B515460C46064625
:10593000CF182A4621463046FFF758FC641C24B293
:10594000A742F6DAF0BD2DE9F0411646069D0C4659
:105950008046CF182B46324621464046FFF75EFC74
:10596000641C24B2A742F5DABDE8F081F0B5144614
:105970000D460646D718224629463046FFF736FC24
:10598000641C24B2A742F6DAF0BD2DE9F0411446BA
:10599000069D0E468046D7182B4622463146404685
:1059A000FFF73CFC641C24B2A742F5DABDE8F081A5
:1059B000F0B50646FFF7C0FB3046FFF7ACFE5C21B2
:1059C0003046FFF79FFF0B4D0023002405EB042713
:1059D0003046F95CFFF794FCF81890F880103046D8
:1059E000FFF78EFC641C802CF0DB5B1C802BECDB57
:1059F000F0BD0000040200202DE9F35F0C464FF0DB
:105A0000000A54E0DFF8C4E0002100254FEA012B32
:105A10000BEB45000219205C52780EEB05274FEA8C
:105A2000D20C5207920E42EA501600F01F08785C22
:105A300007EB0109C3084007800E99F880206345F1
:105A400040EA521002F01F0203D9A3F10103DBB2B6
:105A500002E001D203F1010306F1010C604502D915
:105A6000801EC0B204E000F1010CB44500D2801CDD
:105A7000424503D9A2F10102D2B202E001D202F101
:105A800001024FEAC30343EAD0037B5442EA4010C9
:105A900005F1010589F88000802DB9DB491C8029BA
:105AA000B3DB0098FFF784FF0520FBF7B5FF5046F6
:105AB000411C01F0FF0A1E28A4D321460098FFF7DD
:105AC0000FFD0098BDE8FC5FFFF772BF04020020E5
:105AD0002DE9F041804600241F4D2FE000200023D7
